:100C70005600413A25642E25326400423A25642EFE
:100C800025326400433A25642E25326400443A2517
:060C9000642E2532640011
:100C9600E4FFFEE4FDFC0DBD00010CED64034C70A9
:0C0CA600F50FBF00010EEF640B4E70E76D
:010CB200221F
:0C0CB3007F38120CBF7F0C120CBF7F06B4
:100CBF008F80C2A7C2A6C2A5120C96D2A5020C960F
:100D30008F80D2A7C2A6C2A5120C96D2A5020C968D
:100CCF00EF64014E700C7F01120CBF120CB37FD07A
:0B0CDF008005120CB37F01120CBF2235
:020CEA00AE0753
:100CEC00BE01027A80BE02027AC0EA2D14FAFF120B
:070CFC000CBFAF03020D3035
:0A0BEF007B007A00790E7D017F0182
:100BF900BF0103752480BF02037524C0E5242D14A9
:100C0900F524FF120CBF12050DFF600C120D307494
:080C19000129F9E43AFA80EE2A
:010C210022B0
:080C22008E468F478C488D4976
:100C2A007F017E00E4FBEBC39549E5486480F874D4
:0E0C3A008098500AAC46AD471205650B80E865
:010C48002289
:040B9F008A428B43B8
:100BA300BF0103754580BF02037545C0E5452D149C
:100BB300F545FF120CBFAA44EAD39400402DEA2462
:100BC300FFFDE434FFFC7F0A7E00120C22AC42AD31
:100BD30043CFCDCFCECCCE1205777C007D0A120554
:0B0BE30077ED2430FF120D301A80CD9A
:010BEE0022E4
:100D0300EF1392B4EF5402C31324FF92B5EF5404CC
:080D13001313543F24FF92B6B4
:010D1B0022B5
:100D1C00C2B1C2B0D2B0C2B030B2FDD2B1AF907ECF
:030D2C0000C2B151
:010D2F0022A1
:100D4000758902758CF6758AF6D2AFD2A9D28C223B
:03000B00020003ED
:03000300B2B33263
:100A7F00E4F522F523FFFE120CCF120D407BFF7A17
:100A8F000C79707D087F01120BF9AF0DAE0C120DB2
:100A9F0003D3E50B9428E50A64809480401F050D6D
:100AAF00E50D7002050CD39404E50C64809480402E
:100ABF0005E4F50CF50DE4F50AF50B8008050BE5DB
:100ACF000B7002050A120D1C8F1DAC1DE41201BE26
:100ADF00E4FBFA797F7843120117E4FBFA79FA788D
:100AEF004312000E1201F28E088F09E50D450C70AE
:100AFF000B7527FF75280C752972802CE50D640185
:100B0F00450C700F7527FF75280C75297BAE08AF44
:100B1F00098015E50D6402450C70357527FF7528A2
:100B2F000C752984AE08AF09FC7D641205778E2AF7
:100B3F008F2BAE08AF097C007D641205778C2C8D4E
:100B4F002D7B007A00790E12066C120BEF020A8CC5
:100B5F00E50D6403450C6003020A8C7527FF7528A9
:100B6F000C75298DAE08AF09FC7D641205778E2AAE
:100B7F008F2BAE08AF097C007D641205778C2C8D0E
:100B8F002D7B007A00790E12066C120BEF020A8C85
:10000E00EC4D6011E8497017ED33EC3304600DE4EC
:10001E00FCFFFEFD22E933E8330470F802025E12A3
:10002E00022958046009E4CC2481500628500902A4
:10003E000268284003020265C0E0EB4A7044B980B2
:10004E0006D0E0FB020254EF4E701CBD8008EBFFA1
:10005E00EAFEE9FD80EBE98DF0A4FEE5F00200F783
:10006E00E9CDF9EAFEEBFFEF89F0A4FCE5F0CE89CD
:10007E00F0A42EFFE435F0CD89F0A42DFEE435F08A
:10008E008067EF4E7005BD80D780C3EF8BF0A4ACB8
:10009E00F0EE8BF0A42CFCE435F0F8EF8AF0A42CF3
:1000AE00E5F038FCE433CB8DF0A42CFCE5F03BF806
:1000BE00EE8AF0A42CFCE5F038F8E433CF89F0A4F6
:1000CE002CFCE5F038CF3400CE89F0A42FFFE5F0FC
:1000DE003EFEE433C98DF0A42EFEE5F039CD8AF054
:1000EE00A42FFFE5F03EFEE43DFD33D0E0FB5007CC
:1000FE000BBB000F020268EC2CFCEF33FFEE33FE5D
:06010E00ED33FD0202408A
:10011400020268EC5D046005E85904700302025EA3
:10012400120229580460F6EC4860F2EC7004FDFEFB
:10013400FF22C860DB2481C85009C39860025006BE
:100144000202659850CAF582E9294B4A7005AB82D0
:1001540002025475F0007C1A7880C3EF9BEE9AED8E
:1001640099400DC3EF9BFFEE9AFEED99FDE842F036
:10017400DC23ACF0D0E0FFD0E0FED0E0FDAB822089
:10018400E7101BEB60BAEC2CFCEF33FFEE33FEED13
:1001940033FD020240E803F830E705C0F075F000D3
:1001A400EF2FFFEE33FEED33FD40B830E7C280AAF7
:1001B40075F020800E75F010800575F0087D007EC6
:1001C400007F003392D530D5031205CCEC334010B8
:1001D400EF33FFEE33FEED33FDEC33FCD5F0ED22CF
:0E01E400E5F0247EA2D513CC92E7CDCEFF220B
:1001F200EDD2E7CD33EC3392D524814006E4FFFE05
:10020200FDFC22FCE4CFCECDCC24E0501174FF8063
:10021200EDC3CC13CCCD13CDCE13CECF13CF047000
:07022200F030D5DE0205CC2F
:10061000E53B2427F8E6053B2278243007027827BB
:10062000E475F0011205DA02050D2000EB7F2ED2F1
:10063000008018EF540F2490D43440D4FF30040BC2
:10064000EF24BFB41A0050032461FFE53C6002159B
:100650003C053FE53F7002053E30070D7824E47508
:10066000F0011205DAEF020553020C497403D207B8
:100670008003E4C207F53B8B248A258926E4F53CF8
:10068000F53EF53FE53C60077F2012064B80F5758F
:100690003DFFC201C200C202C203C205C206C208B7
:1006A000120619FF700D3007057F0012065CAF3F80
:1006B000AE3E22B4255FC2D5C204120619FF24D073
:1006C000B40A00501A75F00A783C30D50508B6FF18
:1006D0000106C6A426F620D5047002D20380D924D0
:1006E000CFB41A00EF5004C2E5D204020949D20186
:1006F00080C6D20080C0D20280BCD2D580BAD205DA
:1007000080B47F2012064B2002077401B53C0040E4
:10071000F1120610FF12064B020684D208D20680A0
:1007200095120610FB120610FA120610F94A4B70C9
:100730000679407A0A7BFF20022EE53C602A7E0083
:100740008E8275830012052660060EEE653D70F000
:10075000C2D5EBC0E0EAC0E0E9C0E0EE1209A9D0E2
:10076000E0F9D0E0FAD0E0FB12050DFF60AAEBC083
:10077000E0EAC0E0E9C0E012064BD0E02401F9D085
:10078000E03400FAD0E0FBE53D0460DCD53DD980E3
:1007900087D20280A212098C60F7E53D7001041235
:1007A0000273A93D600DE53D600914F53D120A3361
:1007B000EF60F3EA30E702F404C3995077EAF425D6
:1007C0003D0430E701E404F53D800D12098C60C161
:1007D000EA053D253D120273EA783AF630E701E476
:1007E000253D04D53D04200501141209A9E4C0E00B
:1007F000120A33783AE6601320E70714F61206333C
:10080000802204F6D0E014C0E07F00120633E53DFC
:10081000600712062A153D800B30050312062AD008
:10082000E0020684D0E00480C512098C60A0E53D9A
:1008300004120273783AEAF6E53D200502600104ED
:0508400024041209A9C7
:1008450074FF04C0E0120A33120633E53D200502A9
:10085500600312062AD0E0B53DE87F4512063D78D3
:100865003AE67F2B30E7047F2DF404C0E012064BF7
:10087500D0E075F00A84C0F0120634D0E0120634D8
:10088500020684791080027908C206C2088008D25F
:10089500D5790A8004790AC2D5E53D047002F53D93
:1008A500E4FAFDFEFF120610FC7B08200113120678
:1008B50010FD7B1030000A120610FE120610FF7B99
:1008C50020EC3382D592D55013C3E43000069FFF48
:1008D500E49EFEE42001039DFDE49CFCE4CBF8C20C
:1008E50001EC700CCFCECDCCE824F8F870F380176E
:1008F500C3EF33FFEE33FEED33FDEC33FCEB33FB9F
:10090500994002FB0FD8E9EB300105F8D0E0C44867
:10091500B201C0E00AEC4D4E4F78207B0070C2EA70
:10092500B53D0040BCC0E01209ABD0F0D0E02001DD
:1009350004C4C0E0C4B201C0F0120634D0F0D5F052
:10094500EB0206841205EA07215308885806F24C83
:1009550006EE42088C4F089444089449070743085B
:100965009A5507CB460829450795470A605006F66C
:100975002D06FA2E071D2B06FE23071B200A492AE2
:1009850006B64800000715E53DB4FF03753D0612A0
:100995000610FC120610FD120610FE120610FF7856
:1009A500330202A2790AA2D5200314300509B91031
:1009B500020404B9080104A2D5200602500104204E
:1009C50002689202B53C005034C0E07F2030031924
:1009D5007F30A20272067205500F120A02C202C2CD
:1009E50006C205C2087F30800F300503E9C0E0125A
:1009F500064B300503D0E0F9D0E0B53CCC30051707
:100A05007F30B9100C12064B7F583004077F788071
:100A150003B9080312064B3002057F2D02064B7FF2
:100A2500202008F87F2B2006F322920280CF7F003A
:100A3500B4070050052433F8E6FF22286E756C6C68
:100A45002900D2011206103001F8C201783C30D5D8
:100A55000108F60206B62D50434958120610240324
:100A6500B405004001E4900A5B9312063C743A1207
:0A0A7500063CD203753C0402088819
:10022900E9D2E7C933E833F892D5EDD2E7CD33EC1B
:0702390033FC5002B2D52294
:10024000EC30E7100FBF000C0EBE00080DBD00041F
:100250000BEB6014A2D5EB13FCED92E7FD2274FFCB
:10026000FCFDFEFF22E480F8A2D574FF13FC7D8024
:03027000E480EF38
:10027300F920E72824F950037907E4F42402FB1852
:10028300DBFDE624FB5014E9600DE4F618E604F602
:0F029300B40A08E4F6D9F57401F60A22C2D5229E
:1002A200ED33EC3392D5FA602AB4FF33EDC2E77B2B
:1002B200FF60067A0279C7E4227A0279D020D50457
:1002C2007A0279CB224E614E002B494E46002D49CF
:1002D2004E4600E47A08F608DAFC7B00740722E84E
:1002E200C0E0ECC0E0EDC0E0EEC0E0EFC0E0EA75D7
:1002F200F010A4CAABF075F04DA42BFBE435F0FC72
:10030200EA2410FAEB34C5FBEC34D9FCEDC2E7FF6A
:1003120075F056A4F42411C5F0F434C58FF0A42A64
:10032200E5F03BE43CF620E7141204CDD0E0FFD028
:10033200E0FED0E0FDD0E0FC1201178014F40412BC
:1003420004CDD0E0FFD0E0FED0E0FDD0E0FC120012
:100352000ED0E0F8E6FAEDD2E7CD33EC332482FB9F
:10036200E4C3CF33CFCE33CECD33CD33DBF37B07F4
:1003720075F00A846004F6081B0AE5F0F6088FF0AF
:10038200740AA4FFACF08EF0740AA42CFEACF050F8
:10039200010C8DF0740AA42CFDE435F0F608DBDEC6
:0303A200740722BB
:1003A50002025EE86480F8E933E83360110460F026
:1003B500ED33EC337009E8FCE9FDEAFEEBFF2204BE
:1003C50060DED3EB9FEA9EE99DE8C2E78CF0C2F7B9
:1003D50095F0400CE8CCF8E9CDF9EACEFAEBCFFB85
:1003E50012022985D0F05804700320D5B3E80470B3
:1003F500075002B2D502026892D5EC0460F7E4CC4E
:10040500C0E0C398F8603B94186008400DD0E0FB4D
:10041500020240E4FBFAC9FC8028E830E406E4C99E
:10042500FBE4CAFCE830E305E4C9CACBFCE85407A1
:100435006010F8C3E913F9EA13FAEB13FBEC13FCAC
:10044500D8F130F52FC3E49CFCEF9BFFEE9AFEED4F
:1004550099FDD0E0FBEF4E4D4C701222DB030202FA
:1004650065EC2CFCEF33FFEE33FEED33FDED30E7AD
:10047500EB020240EF2BFFEE3AFEED39FDD0E0FB3B
:1004850050130BBB0003020268ED13FDEE13FEEFE4
:0804950013FFEC13FC0202400E
:10049D003F8000004120000042C80000447A000067
:1004AD00461C400047C35000497424004B189680E9
:1004BD004CBEBC205A0E1BCA6753C21C749DC5AEE0
:1004CD00FB60065407601C23231204FBEB543860B9
:1004DD00091204E71204F612000EECF8EDF9EEFA2B
:1004ED00EFCB22EB1204F680F1543803241C900458
:1004FD009DFE93FC0EEE93FD0EEE930ECE93FF221A
:03000000020D509E
:0C0D5000787FE4F6D8FD758149020A7F27
:10050D00BB010689828A83E0225002E722BBFE02EC
:09051D00E32289828A83E493221F
:10052600BB010CE58229F582E5833AF583E022508A
:1005360006E92582F8E622BBFE06E92582F8E222D4
:0D054600E58229F582E5833AF583E49322EE
:10055300BB010689828A83F0225002F722BBFE0187
:02056300F32281
:10056500EF8DF0A4A8F0CF8CF0A428CE8DF0A42EAA
:02057500FE2264
:10057700BC000BBE0029EF8DF084FFADF022E4CC68
:10058700F875F008EF2FFFEE33FEEC33FCEE9DEC31
:10059700984005FCEE9DFE0FD5F0E9E4CEFD22ED77
:1005A700F8F5F0EE8420D21CFEADF075F008EF2FC1
:1005B700FFED33FD4007985006D5F0F222C398FDB2
:0505C7000FD5F0EA224F
:0E05CC00C3E49FFFE49EFEE49DFDE49CFC2240
:1005DA00FAE6FB0808E6F925F0F618E6CA3AF62222
:1005EA00D083D082F8E4937012740193700DA3A3A0
:1005FA0093F8740193F5828883E4737402936860B4
:06060A00EFA3A3A380DFB3
:100C4900EFB40A07740D120C54740A309811A8995C
:100C5900B8130CC2983098FDA899C298B811F6300B
:070C690099FDC299F59922E3
:00000001FF
